{
  "_format": "hh-sol-artifact-1",
  "contractName": "EtherWallet",
  "sourceName": "contracts/EtherWallet.sol",
  "abi": [
    {
      "inputs": [],
      "stateMutability": "nonpayable",
      "type": "constructor"
    },
    {
      "anonymous": false,
      "inputs": [
        {
          "indexed": true,
          "internalType": "address",
          "name": "sender",
          "type": "address"
        },
        {
          "indexed": false,
          "internalType": "uint256",
          "name": "amount",
          "type": "uint256"
        }
      ],
      "name": "EtherReceived",
      "type": "event"
    },
    {
      "anonymous": false,
      "inputs": [
        {
          "indexed": true,
          "internalType": "address",
          "name": "recipient",
          "type": "address"
        },
        {
          "indexed": false,
          "internalType": "uint256",
          "name": "amount",
          "type": "uint256"
        }
      ],
      "name": "EtherSent",
      "type": "event"
    },
    {
      "anonymous": false,
      "inputs": [
        {
          "indexed": true,
          "internalType": "address",
          "name": "owner",
          "type": "address"
        },
        {
          "indexed": false,
          "internalType": "uint256",
          "name": "amount",
          "type": "uint256"
        }
      ],
      "name": "Withdrawal",
      "type": "event"
    },
    {
      "stateMutability": "payable",
      "type": "fallback"
    },
    {
      "inputs": [],
      "name": "deposit",
      "outputs": [],
      "stateMutability": "payable",
      "type": "function"
    },
    {
      "inputs": [],
      "name": "getBalance",
      "outputs": [
        {
          "internalType": "uint256",
          "name": "",
          "type": "uint256"
        }
      ],
      "stateMutability": "view",
      "type": "function"
    },
    {
      "inputs": [],
      "name": "owner",
      "outputs": [
        {
          "internalType": "address",
          "name": "",
          "type": "address"
        }
      ],
      "stateMutability": "view",
      "type": "function"
    },
    {
      "inputs": [
        {
          "internalType": "address payable",
          "name": "_to",
          "type": "address"
        },
        {
          "internalType": "uint256",
          "name": "_amount",
          "type": "uint256"
        }
      ],
      "name": "sendEther",
      "outputs": [],
      "stateMutability": "nonpayable",
      "type": "function"
    },
    {
      "inputs": [
        {
          "internalType": "address",
          "name": "_newOwner",
          "type": "address"
        }
      ],
      "name": "transferOwnership",
      "outputs": [],
      "stateMutability": "nonpayable",
      "type": "function"
    },
    {
      "inputs": [],
      "name": "withdrawAll",
      "outputs": [],
      "stateMutability": "nonpayable",
      "type": "function"
    },
    {
      "stateMutability": "payable",
      "type": "receive"
    }
  ],
  "bytecode": "0x6080604052348015600f57600080fd5b50336000806101000a81548173ffffffffffffffffffffffffffffffffffffffff021916908373ffffffffffffffffffffffffffffffffffffffff160217905550610ec08061005f6000396000f3fe6080604052600436106100595760003560e01c806312065fe0146100fe578063853828b6146101295780638da5cb5b14610140578063c1756a2c1461016b578063d0e30db014610194578063f2fde38b1461019e576100ae565b366100ae573373ffffffffffffffffffffffffffffffffffffffff167f1e57e3bb474320be3d2c77138f75b7c3941292d647f5f9634e33a8e94e0e069b346040516100a49190610876565b60405180910390a2005b3373ffffffffffffffffffffffffffffffffffffffff167f1e57e3bb474320be3d2c77138f75b7c3941292d647f5f9634e33a8e94e0e069b346040516100f49190610876565b60405180910390a2005b34801561010a57600080fd5b506101136101c7565b6040516101209190610876565b60405180910390f35b34801561013557600080fd5b5061013e6101cf565b005b34801561014c57600080fd5b506101556103e4565b60405161016291906108d2565b60405180910390f35b34801561017757600080fd5b50610192600480360381019061018d919061095c565b610408565b005b61019c61068a565b005b3480156101aa57600080fd5b506101c560048036038101906101c091906109c8565b61071d565b005b600047905090565b60008054906101000a900473ffffffffffffffffffffffffffffffffffffffff1673ffffffffffffffffffffffffffffffffffffffff163373ffffffffffffffffffffffffffffffffffffffff161461025d576040517f08c379a000000000000000000000000000000000000000000000000000000000815260040161025490610a78565b60405180910390fd5b6000479050600081116102a5576040517f08c379a000000000000000000000000000000000000000000000000000000000815260040161029c90610ae4565b60405180910390fd5b60008060009054906101000a900473ffffffffffffffffffffffffffffffffffffffff1673ffffffffffffffffffffffffffffffffffffffff16826040516102ec90610b35565b60006040518083038185875af1925050503d8060008114610329576040519150601f19603f3d011682016040523d82523d6000602084013e61032e565b606091505b5050905080610372576040517f08c379a000000000000000000000000000000000000000000000000000000000815260040161036990610b96565b60405180910390fd5b60008054906101000a900473ffffffffffffffffffffffffffffffffffffffff1673ffffffffffffffffffffffffffffffffffffffff167f7fcf532c15f0a6db0bd6d0e038bea71d30d808c7d98cb3bf7268a95bf5081b65836040516103d89190610876565b60405180910390a25050565b60008054906101000a900473ffffffffffffffffffffffffffffffffffffffff1681565b60008054906101000a900473ffffffffffffffffffffffffffffffffffffffff1673ffffffffffffffffffffffffffffffffffffffff163373ffffffffffffffffffffffffffffffffffffffff1614610496576040517f08c379a000000000000000000000000000000000000000000000000000000000815260040161048d90610a78565b60405180910390fd5b600073ffffffffffffffffffffffffffffffffffffffff168273ffffffffffffffffffffffffffffffffffffffff1603610505576040517f08c379a00000000000000000000000000000000000000000000000000000000081526004016104fc90610c02565b60405180910390fd5b60008111610548576040517f08c379a000000000000000000000000000000000000000000000000000000000815260040161053f90610c94565b60405180910390fd5b8047101561058b576040517f08c379a000000000000000000000000000000000000000000000000000000000815260040161058290610d26565b60405180910390fd5b60008273ffffffffffffffffffffffffffffffffffffffff16826040516105b190610b35565b60006040518083038185875af1925050503d80600081146105ee576040519150601f19603f3d011682016040523d82523d6000602084013e6105f3565b606091505b5050905080610637576040517f08c379a000000000000000000000000000000000000000000000000000000000815260040161062e90610d92565b60405180910390fd5b8273ffffffffffffffffffffffffffffffffffffffff167f6109e2559dfa766aaec7118351d48a523f0a4157f49c8d68749c8ac41318ad128360405161067d9190610876565b60405180910390a2505050565b600034116106cd576040517f08c379a00000000000000000000000000000000000000000000000000000000081526004016106c490610dfe565b60405180910390fd5b3373ffffffffffffffffffffffffffffffffffffffff167f1e57e3bb474320be3d2c77138f75b7c3941292d647f5f9634e33a8e94e0e069b346040516107139190610876565b60405180910390a2565b60008054906101000a900473ffffffffffffffffffffffffffffffffffffffff1673ffffffffffffffffffffffffffffffffffffffff163373ffffffffffffffffffffffffffffffffffffffff16146107ab576040517f08c379a00000000000000000000000000000000000000000000000000000000081526004016107a290610a78565b60405180910390fd5b600073ffffffffffffffffffffffffffffffffffffffff168173ffffffffffffffffffffffffffffffffffffffff160361081a576040517f08c379a000000000000000000000000000000000000000000000000000000000815260040161081190610e6a565b60405180910390fd5b806000806101000a81548173ffffffffffffffffffffffffffffffffffffffff021916908373ffffffffffffffffffffffffffffffffffffffff16021790555050565b6000819050919050565b6108708161085d565b82525050565b600060208201905061088b6000830184610867565b92915050565b600073ffffffffffffffffffffffffffffffffffffffff82169050919050565b60006108bc82610891565b9050919050565b6108cc816108b1565b82525050565b60006020820190506108e760008301846108c3565b92915050565b600080fd5b60006108fd82610891565b9050919050565b61090d816108f2565b811461091857600080fd5b50565b60008135905061092a81610904565b92915050565b6109398161085d565b811461094457600080fd5b50565b60008135905061095681610930565b92915050565b60008060408385031215610973576109726108ed565b5b60006109818582860161091b565b925050602061099285828601610947565b9150509250929050565b6109a5816108b1565b81146109b057600080fd5b50565b6000813590506109c28161099c565b92915050565b6000602082840312156109de576109dd6108ed565b5b60006109ec848285016109b3565b91505092915050565b600082825260208201905092915050565b7f536f6c6f20656c2070726f706965746172696f20707565646520656a6563757460008201527f617220657374612066756e63696f6e0000000000000000000000000000000000602082015250565b6000610a62602f836109f5565b9150610a6d82610a06565b604082019050919050565b60006020820190508181036000830152610a9181610a55565b9050919050565b7f4e6f2068617920666f6e646f7320706172612072657469726172000000000000600082015250565b6000610ace601a836109f5565b9150610ad982610a98565b602082019050919050565b60006020820190508181036000830152610afd81610ac1565b9050919050565b600081905092915050565b50565b6000610b1f600083610b04565b9150610b2a82610b0f565b600082019050919050565b6000610b4082610b12565b9150819050919050565b7f52657469726f2066616c6c69646f000000000000000000000000000000000000600082015250565b6000610b80600e836109f5565b9150610b8b82610b4a565b602082019050919050565b60006020820190508181036000830152610baf81610b73565b9050919050565b7f446972656363696f6e20696e76616c6964610000000000000000000000000000600082015250565b6000610bec6012836109f5565b9150610bf782610bb6565b602082019050919050565b60006020820190508181036000830152610c1b81610bdf565b9050919050565b7f4c612063616e7469646164206465626520736572206d61796f7220612063657260008201527f6f00000000000000000000000000000000000000000000000000000000000000602082015250565b6000610c7e6021836109f5565b9150610c8982610c22565b604082019050919050565b60006020820190508181036000830152610cad81610c71565b9050919050565b7f42616c616e636520696e737566696369656e746520656e20656c20636f6e747260008201527f61746f0000000000000000000000000000000000000000000000000000000000602082015250565b6000610d106023836109f5565b9150610d1b82610cb4565b604082019050919050565b60006020820190508181036000830152610d3f81610d03565b9050919050565b7f5472616e73666572656e6369612066616c6c6964610000000000000000000000600082015250565b6000610d7c6015836109f5565b9150610d8782610d46565b602082019050919050565b60006020820190508181036000830152610dab81610d6f565b9050919050565b7f4465626520656e7669617220616c676f20646520457468657200000000000000600082015250565b6000610de86019836109f5565b9150610df382610db2565b602082019050919050565b60006020820190508181036000830152610e1781610ddb565b9050919050565b7f4e7565766120646972656363696f6e20696e76616c6964610000000000000000600082015250565b6000610e546018836109f5565b9150610e5f82610e1e565b602082019050919050565b60006020820190508181036000830152610e8381610e47565b905091905056fea2646970667358221220384a31f94842c4f4b27501bdf95ae51c33b065a566c93d8dcefbe6074690f3d564736f6c634300081c0033",
  "linkReferences": {},
  "deployedLinkReferences": {}
}